:060000000A128A110C280F
:10000800FE00030EF1000A08F2000A128A115528B0
:100018000A128A110F28F301F40183010A128A11C6
:1000280081288316031788018901831603130F0893
:100038008F3940388F000F14203085008312031346
:100048008501013083160313890083120313890184
:10005800183083160313870083120313870183164E
:10006800031388018312031388011408F039043834
:1000780094001412941683160313141794138312FE
:1000880003138C11831603138C150B178B17061487
:10009800861481138B1515149514161496140B10C9
:1000A8000800831203138C1D5A285B286428130840
:1000B800F0007008F30073088800740893008C112E
:1000C8000B1C672868287A2806186B286C28712862
:1000D8000130F0007008F4070B1086187428752892
:1000E80078280130F4020B107408850072088A0021
:1000F800710E8300FE0E7E0E09000A128A11152069
:0C0108000A128A1186280A128A110C289B
:08400000FF3FFF3FFF3FFF3FC0
:04400E00D420FF3F7C
:00000001FF
